{
  "_format": "hh-sol-artifact-1",
  "contractName": "Voting",
  "sourceName": "contracts/Voting.sol",
  "abi": [
    {
      "inputs": [],
      "stateMutability": "nonpayable",
      "type": "constructor"
    },
    {
      "inputs": [
        {
          "internalType": "string",
          "name": "_name",
          "type": "string"
        }
      ],
      "name": "addCandidate",
      "outputs": [],
      "stateMutability": "nonpayable",
      "type": "function"
    },
    {
      "inputs": [
        {
          "internalType": "uint256",
          "name": "",
          "type": "uint256"
        }
      ],
      "name": "candidates",
      "outputs": [
        {
          "internalType": "uint256",
          "name": "id",
          "type": "uint256"
        },
        {
          "internalType": "string",
          "name": "name",
          "type": "string"
        },
        {
          "internalType": "uint256",
          "name": "numberOfVotes",
          "type": "uint256"
        }
      ],
      "stateMutability": "view",
      "type": "function"
    },
    {
      "inputs": [],
      "name": "checkElectionPeriod",
      "outputs": [
        {
          "internalType": "bool",
          "name": "",
          "type": "bool"
        }
      ],
      "stateMutability": "nonpayable",
      "type": "function"
    },
    {
      "inputs": [],
      "name": "electionStarted",
      "outputs": [
        {
          "internalType": "bool",
          "name": "",
          "type": "bool"
        }
      ],
      "stateMutability": "view",
      "type": "function"
    },
    {
      "inputs": [],
      "name": "electionTimer",
      "outputs": [
        {
          "internalType": "uint256",
          "name": "",
          "type": "uint256"
        }
      ],
      "stateMutability": "view",
      "type": "function"
    },
    {
      "inputs": [
        {
          "internalType": "uint256",
          "name": "",
          "type": "uint256"
        }
      ],
      "name": "listOfVoters",
      "outputs": [
        {
          "internalType": "address",
          "name": "",
          "type": "address"
        }
      ],
      "stateMutability": "view",
      "type": "function"
    },
    {
      "inputs": [],
      "name": "owner",
      "outputs": [
        {
          "internalType": "address",
          "name": "",
          "type": "address"
        }
      ],
      "stateMutability": "view",
      "type": "function"
    },
    {
      "inputs": [],
      "name": "resetAllVoterStatus",
      "outputs": [],
      "stateMutability": "nonpayable",
      "type": "function"
    },
    {
      "inputs": [],
      "name": "retrieveVotes",
      "outputs": [
        {
          "components": [
            {
              "internalType": "uint256",
              "name": "id",
              "type": "uint256"
            },
            {
              "internalType": "string",
              "name": "name",
              "type": "string"
            },
            {
              "internalType": "uint256",
              "name": "numberOfVotes",
              "type": "uint256"
            }
          ],
          "internalType": "struct Voting.Candidate[]",
          "name": "",
          "type": "tuple[]"
        }
      ],
      "stateMutability": "view",
      "type": "function"
    },
    {
      "inputs": [
        {
          "internalType": "string[]",
          "name": "_candidates",
          "type": "string[]"
        },
        {
          "internalType": "uint256",
          "name": "_votingDuration",
          "type": "uint256"
        }
      ],
      "name": "startElection",
      "outputs": [],
      "stateMutability": "nonpayable",
      "type": "function"
    },
    {
      "inputs": [
        {
          "internalType": "uint256",
          "name": "_id",
          "type": "uint256"
        }
      ],
      "name": "voteTo",
      "outputs": [],
      "stateMutability": "nonpayable",
      "type": "function"
    },
    {
      "inputs": [
        {
          "internalType": "address",
          "name": "_voter",
          "type": "address"
        }
      ],
      "name": "voterStatus",
      "outputs": [
        {
          "internalType": "bool",
          "name": "",
          "type": "bool"
        }
      ],
      "stateMutability": "view",
      "type": "function"
    },
    {
      "inputs": [
        {
          "internalType": "address",
          "name": "",
          "type": "address"
        }
      ],
      "name": "voters",
      "outputs": [
        {
          "internalType": "bool",
          "name": "",
          "type": "bool"
        }
      ],
      "stateMutability": "view",
      "type": "function"
    },
    {
      "inputs": [],
      "name": "votingEnd",
      "outputs": [
        {
          "internalType": "uint256",
          "name": "",
          "type": "uint256"
        }
      ],
      "stateMutability": "view",
      "type": "function"
    },
    {
      "inputs": [],
      "name": "votingStart",
      "outputs": [
        {
          "internalType": "uint256",
          "name": "",
          "type": "uint256"
        }
      ],
      "stateMutability": "view",
      "type": "function"
    }
  ],
  "bytecode": "0x608060405234801561001057600080fd5b5033600160006101000a81548173ffffffffffffffffffffffffffffffffffffffff021916908373ffffffffffffffffffffffffffffffffffffffff1602179055506119c2806100616000396000f3fe608060405234801561001057600080fd5b50600436106100f55760003560e01c8063576cc4f211610097578063a3ec138d11610066578063a3ec138d14610276578063d4608b72146102a6578063d4a6cac8146102b0578063d5346da1146102ce576100f5565b8063576cc4f2146101da57806385a386351461020a5780638da5cb5b146102285780639a53cbea14610246576100f5565b80633477ee2e116100d35780633477ee2e146101525780633c9a4df3146101845780633d7b995c146101a2578063462e91ec146101be576100f5565b8063031e5004146100fa5780630b56a68114610118578063101158af14610134575b600080fd5b6101026102ec565b60405161010f9190611072565b60405180910390f35b610132600480360381019061012d91906112ef565b6103f1565b005b61013c6105e5565b604051610149919061135a565b60405180910390f35b61016c60048036038101906101679190611375565b6105eb565b60405161017b939291906113ec565b60405180910390f35b61018c6106ad565b604051610199919061135a565b60405180910390f35b6101bc60048036038101906101b79190611375565b610724565b005b6101d860048036038101906101d3919061142a565b6108fc565b005b6101f460048036038101906101ef91906114d1565b610a5d565b6040516102019190611519565b60405180910390f35b610212610b1a565b60405161021f919061135a565b60405180910390f35b610230610b20565b60405161023d9190611543565b60405180910390f35b610260600480360381019061025b9190611375565b610b46565b60405161026d9190611543565b60405180910390f35b610290600480360381019061028b91906114d1565b610b85565b60405161029d9190611519565b60405180910390f35b6102ae610ba5565b005b6102b8610cff565b6040516102c59190611519565b60405180910390f35b6102d6610d3c565b6040516102e39190611519565b60405180910390f35b60606000805480602002602001604051908101604052809291908181526020016000905b828210156103e857838290600052602060002090600302016040518060600160405290816000820154815260200160018201805461034d9061158d565b80601f01602080910402602001604051908101604052809291908181526020018280546103799061158d565b80156103c65780601f1061039b576101008083540402835291602001916103c6565b820191906000526020600020905b8154815290600101906020018083116103a957829003601f168201915b5050505050815260200160028201548152505081526020019060010190610310565b50505050905090565b600160009054906101000a900473ffffffffffffffffffffffffffffffffffffffff1673ffffffffffffffffffffffffffffffffffffffff163373ffffffffffffffffffffffffffffffffffffffff1614610481576040517f08c379a00000000000000000000000000000000000000000000000000000000081526004016104789061160b565b60405180910390fd5b60001515600660009054906101000a900460ff161515146104d7576040517f08c379a00000000000000000000000000000000000000000000000000000000081526004016104ce90611677565b60405180910390fd5b6000806104e49190610d4f565b6104ec610ba5565b60005b82518110156105a057600060405180606001604052806001815260200185848151811061051f5761051e611697565b5b6020026020010151815260200160008152509080600181540180825580915050600190039060005260206000209060030201600090919091909150600082015181600001556020820151816001019080519060200190610580929190610d73565b506040820151816002015550508080610598906116f5565b9150506104ef565b506001600660006101000a81548160ff02191690831515021790555042600481905550603c816105d0919061173e565b426105db9190611798565b6005819055505050565b60045481565b600081815481106105fb57600080fd5b90600052602060002090600302016000915090508060000154908060010180546106249061158d565b80601f01602080910402602001604051908101604052809291908181526020018280546106509061158d565b801561069d5780601f106106725761010080835404028352916020019161069d565b820191906000526020600020905b81548152906001019060200180831161068057829003601f168201915b5050505050908060020154905083565b6000600660009054906101000a900460ff166106fe576040517f08c379a00000000000000000000000000000000000000000000000000000000081526004016106f59061183a565b60405180910390fd5b60055442106107105760009050610721565b4260055461071e919061185a565b90505b90565b600660009054906101000a900460ff16610773576040517f08c379a000000000000000000000000000000000000000000000000000000000815260040161076a9061183a565b60405180910390fd5b61077b610cff565b6107ba576040517f08c379a00000000000000000000000000000000000000000000000000000000081526004016107b1906118da565b60405180910390fd5b6107c333610a5d565b15610803576040517f08c379a00000000000000000000000000000000000000000000000000000000081526004016107fa9061196c565b60405180910390fd5b6000818154811061081757610816611697565b5b90600052602060002090600302016002016000815480929190610839906116f5565b91905055506001600260003373ffffffffffffffffffffffffffffffffffffffff1673ffffffffffffffffffffffffffffffffffffffff16815260200190815260200160002060006101000a81548160ff0219169083151502179055506003339080600181540180825580915050600190039060005260206000200160009091909190916101000a81548173ffffffffffffffffffffffffffffffffffffffff021916908373ffffffffffffffffffffffffffffffffffffffff16021790555050565b600160009054906101000a900473ffffffffffffffffffffffffffffffffffffffff1673ffffffffffffffffffffffffffffffffffffffff163373ffffffffffffffffffffffffffffffffffffffff161461098c576040517f08c379a00000000000000000000000000000000000000000000000000000000081526004016109839061160b565b60405180910390fd5b600660009054906101000a900460ff166109db576040517f08c379a00000000000000000000000000000000000000000000000000000000081526004016109d29061183a565b60405180910390fd5b60006040518060600160405280600080549050815260200183815260200160008152509080600181540180825580915050600190039060005260206000209060030201600090919091909150600082015181600001556020820151816001019080519060200190610a4d929190610d73565b5060408201518160020155505050565b6000600660009054906101000a900460ff16610aae576040517f08c379a0000000000000000000000000000000000000000000000000000000008152600401610aa59061183a565b60405180910390fd5b60011515600260008473ffffffffffffffffffffffffffffffffffffffff1673ffffffffffffffffffffffffffffffffffffffff16815260200190815260200160002060009054906101000a900460ff1615151415610b105760019050610b15565b600090505b919050565b60055481565b600160009054906101000a900473ffffffffffffffffffffffffffffffffffffffff1681565b60038181548110610b5657600080fd5b906000526020600020016000915054906101000a900473ffffffffffffffffffffffffffffffffffffffff1681565b60026020528060005260406000206000915054906101000a900460ff1681565b600160009054906101000a900473ffffffffffffffffffffffffffffffffffffffff1673ffffffffffffffffffffffffffffffffffffffff163373ffffffffffffffffffffffffffffffffffffffff1614610c35576040517f08c379a0000000000000000000000000000000000000000000000000000000008152600401610c2c9061160b565b60405180910390fd5b60005b600380549050811015610cee5760006002600060038481548110610c5f57610c5e611697565b5b9060005260206000200160009054906101000a900473ffffffffffffffffffffffffffffffffffffffff1673ffffffffffffffffffffffffffffffffffffffff1673ffffffffffffffffffffffffffffffffffffffff16815260200190815260200160002060006101000a81548160ff0219169083151502179055508080610ce6906116f5565b915050610c38565b5060036000610cfd9190610df9565b565b600080610d0a6106ad565b1115610d195760019050610d39565b6000600660006101000a81548160ff021916908315150217905550600090505b90565b600660009054906101000a900460ff1681565b5080546000825560030290600052602060002090810190610d709190610e1a565b50565b828054610d7f9061158d565b90600052602060002090601f016020900481019282610da15760008555610de8565b82601f10610dba57805160ff1916838001178555610de8565b82800160010185558215610de8579182015b82811115610de7578251825591602001919060010190610dcc565b5b509050610df59190610e51565b5090565b5080546000825590600052602060002090810190610e179190610e51565b50565b5b80821115610e4d57600080820160009055600182016000610e3c9190610e6e565b600282016000905550600301610e1b565b5090565b5b80821115610e6a576000816000905550600101610e52565b5090565b508054610e7a9061158d565b6000825580601f10610e8c5750610eab565b601f016020900490600052602060002090810190610eaa9190610e51565b5b50565b600081519050919050565b600082825260208201905092915050565b6000819050602082019050919050565b6000819050919050565b610eed81610eda565b82525050565b600081519050919050565b600082825260208201905092915050565b60005b83811015610f2d578082015181840152602081019050610f12565b83811115610f3c576000848401525b50505050565b6000601f19601f8301169050919050565b6000610f5e82610ef3565b610f688185610efe565b9350610f78818560208601610f0f565b610f8181610f42565b840191505092915050565b6000606083016000830151610fa46000860182610ee4565b5060208301518482036020860152610fbc8282610f53565b9150506040830151610fd16040860182610ee4565b508091505092915050565b6000610fe88383610f8c565b905092915050565b6000602082019050919050565b600061100882610eae565b6110128185610eb9565b93508360208202850161102485610eca565b8060005b8581101561106057848403895281516110418582610fdc565b945061104c83610ff0565b925060208a01995050600181019050611028565b50829750879550505050505092915050565b6000602082019050818103600083015261108c8184610ffd565b905092915050565b6000604051905090565b600080fd5b600080fd5b600080fd5b7f4e487b7100000000000000000000000000000000000000000000000000000000600052604160045260246000fd5b6110e582610f42565b810181811067ffffffffffffffff82111715611104576111036110ad565b5b80604052505050565b6000611117611094565b905061112382826110dc565b919050565b600067ffffffffffffffff821115611143576111426110ad565b5b602082029050602081019050919050565b600080fd5b600080fd5b600067ffffffffffffffff821115611179576111786110ad565b5b61118282610f42565b9050602081019050919050565b82818337600083830152505050565b60006111b16111ac8461115e565b61110d565b9050828152602081018484840111156111cd576111cc611159565b5b6111d884828561118f565b509392505050565b600082601f8301126111f5576111f46110a8565b5b813561120584826020860161119e565b91505092915050565b600061122161121c84611128565b61110d565b9050808382526020820190506020840283018581111561124457611243611154565b5b835b8181101561128b57803567ffffffffffffffff811115611269576112686110a8565b5b80860161127689826111e0565b85526020850194505050602081019050611246565b5050509392505050565b600082601f8301126112aa576112a96110a8565b5b81356112ba84826020860161120e565b91505092915050565b6112cc81610eda565b81146112d757600080fd5b50565b6000813590506112e9816112c3565b92915050565b600080604083850312156113065761130561109e565b5b600083013567ffffffffffffffff811115611324576113236110a3565b5b61133085828601611295565b9250506020611341858286016112da565b9150509250929050565b61135481610eda565b82525050565b600060208201905061136f600083018461134b565b92915050565b60006020828403121561138b5761138a61109e565b5b6000611399848285016112da565b91505092915050565b600082825260208201905092915050565b60006113be82610ef3565b6113c881856113a2565b93506113d8818560208601610f0f565b6113e181610f42565b840191505092915050565b6000606082019050611401600083018661134b565b818103602083015261141381856113b3565b9050611422604083018461134b565b949350505050565b6000602082840312156114405761143f61109e565b5b600082013567ffffffffffffffff81111561145e5761145d6110a3565b5b61146a848285016111e0565b91505092915050565b600073ffffffffffffffffffffffffffffffffffffffff82169050919050565b600061149e82611473565b9050919050565b6114ae81611493565b81146114b957600080fd5b50565b6000813590506114cb816114a5565b92915050565b6000602082840312156114e7576114e661109e565b5b60006114f5848285016114bc565b91505092915050565b60008115159050919050565b611513816114fe565b82525050565b600060208201905061152e600083018461150a565b92915050565b61153d81611493565b82525050565b60006020820190506115586000830184611534565b92915050565b7f4e487b7100000000000000000000000000000000000000000000000000000000600052602260045260246000fd5b600060028204905060018216806115a557607f821691505b602082108114156115b9576115b861155e565b5b50919050565b7f596f7520617265206e6f7420617574686f72697a656400000000000000000000600082015250565b60006115f56016836113a2565b9150611600826115bf565b602082019050919050565b60006020820190508181036000830152611624816115e8565b9050919050565b7f656c656374696f6e2069732063757272656e746c79206f6e676f696e67000000600082015250565b6000611661601d836113a2565b915061166c8261162b565b602082019050919050565b6000602082019050818103600083015261169081611654565b9050919050565b7f4e487b7100000000000000000000000000000000000000000000000000000000600052603260045260246000fd5b7f4e487b7100000000000000000000000000000000000000000000000000000000600052601160045260246000fd5b600061170082610eda565b91507fffffffffffffffffffffffffffffffffffffffffffffffffffffffffffffffff821415611733576117326116c6565b5b600182019050919050565b600061174982610eda565b915061175483610eda565b9250817fffffffffffffffffffffffffffffffffffffffffffffffffffffffffffffffff048311821515161561178d5761178c6116c6565b5b828202905092915050565b60006117a382610eda565b91506117ae83610eda565b9250827fffffffffffffffffffffffffffffffffffffffffffffffffffffffffffffffff038211156117e3576117e26116c6565b5b828201905092915050565b7f4e6f20656c656374696f6e207374617274656400000000000000000000000000600082015250565b60006118246013836113a2565b915061182f826117ee565b602082019050919050565b6000602082019050818103600083015261185381611817565b9050919050565b600061186582610eda565b915061187083610eda565b925082821015611883576118826116c6565b5b828203905092915050565b7f456c656374696f6e20706572696f642068617320656e64656400000000000000600082015250565b60006118c46019836113a2565b91506118cf8261188e565b602082019050919050565b600060208201905081810360008301526118f3816118b7565b9050919050565b7f596f7520616c726561647920766f7465642e20596f752063616e206f6e6c792060008201527f766f7465206f6e63652e00000000000000000000000000000000000000000000602082015250565b6000611956602a836113a2565b9150611961826118fa565b604082019050919050565b6000602082019050818103600083015261198581611949565b905091905056fea2646970667358221220b0697b487f3441710990aae9b023c1603e68d4d4077886e91605048a438ec69464736f6c634300080b0033",
  "linkReferences": {},
  "deployedLinkReferences": {}
}